{
  "contractName": "Bank",
  "abi": [
    {
      "anonymous": false,
      "inputs": [
        {
          "indexed": true,
          "internalType": "address",
          "name": "sender",
          "type": "address"
        },
        {
          "indexed": false,
          "internalType": "uint256",
          "name": "amount",
          "type": "uint256"
        }
      ],
      "name": "Deposit",
      "type": "event"
    },
    {
      "anonymous": false,
      "inputs": [
        {
          "indexed": true,
          "internalType": "address",
          "name": "from",
          "type": "address"
        },
        {
          "indexed": true,
          "internalType": "address",
          "name": "to",
          "type": "address"
        },
        {
          "indexed": false,
          "internalType": "uint256",
          "name": "amount",
          "type": "uint256"
        }
      ],
      "name": "Transfer",
      "type": "event"
    },
    {
      "inputs": [
        {
          "internalType": "address",
          "name": "",
          "type": "address"
        }
      ],
      "name": "balances",
      "outputs": [
        {
          "internalType": "uint256",
          "name": "",
          "type": "uint256"
        }
      ],
      "stateMutability": "view",
      "type": "function"
    },
    {
      "inputs": [],
      "name": "deposit",
      "outputs": [],
      "stateMutability": "payable",
      "type": "function"
    },
    {
      "inputs": [
        {
          "internalType": "address payable",
          "name": "_to",
          "type": "address"
        },
        {
          "internalType": "uint256",
          "name": "_amount",
          "type": "uint256"
        }
      ],
      "name": "sendMoney",
      "outputs": [],
      "stateMutability": "nonpayable",
      "type": "function"
    },
    {
      "inputs": [],
      "name": "getBalance",
      "outputs": [
        {
          "internalType": "uint256",
          "name": "",
          "type": "uint256"
        }
      ],
      "stateMutability": "view",
      "type": "function"
    }
  ],
  "bytecode": "0x608060405234801561000f575f80fd5b506107c18061001d5f395ff3fe60806040526004361061003e575f3560e01c806312065fe01461004257806327e235e31461006c578063d0e30db0146100a8578063ee4ae2c9146100b2575b5f80fd5b34801561004d575f80fd5b506100566100da565b604051610063919061046b565b60405180910390f35b348015610077575f80fd5b50610092600480360381019061008d91906104e2565b61011d565b60405161009f919061046b565b60405180910390f35b6100b0610131565b005b3480156100bd575f80fd5b506100d860048036038101906100d39190610572565b610215565b005b5f805f3373ffffffffffffffffffffffffffffffffffffffff1673ffffffffffffffffffffffffffffffffffffffff1681526020019081526020015f2054905090565b5f602052805f5260405f205f915090505481565b5f3411610173576040517f08c379a000000000000000000000000000000000000000000000000000000000815260040161016a9061060a565b60405180910390fd5b345f803373ffffffffffffffffffffffffffffffffffffffff1673ffffffffffffffffffffffffffffffffffffffff1681526020019081526020015f205f8282546101be9190610655565b925050819055503373ffffffffffffffffffffffffffffffffffffffff167fe1fffcc4923d04b559f4d29a8bfc6cda04eb5b0d3c460751c2402c5c5cc9109c3460405161020b919061046b565b60405180910390a2565b805f803373ffffffffffffffffffffffffffffffffffffffff1673ffffffffffffffffffffffffffffffffffffffff1681526020019081526020015f20541015610294576040517f08c379a000000000000000000000000000000000000000000000000000000000815260040161028b906106d2565b60405180910390fd5b5f73ffffffffffffffffffffffffffffffffffffffff168273ffffffffffffffffffffffffffffffffffffffff1603610302576040517f08c379a00000000000000000000000000000000000000000000000000000000081526004016102f99061073a565b60405180910390fd5b805f803373ffffffffffffffffffffffffffffffffffffffff1673ffffffffffffffffffffffffffffffffffffffff1681526020019081526020015f205f82825461034d9190610758565b92505081905550805f808473ffffffffffffffffffffffffffffffffffffffff1673ffffffffffffffffffffffffffffffffffffffff1681526020019081526020015f205f82825461039f9190610655565b925050819055508173ffffffffffffffffffffffffffffffffffffffff166108fc8290811502906040515f60405180830381858888f193505050501580156103e9573d5f803e3d5ffd5b508173ffffffffffffffffffffffffffffffffffffffff163373ffffffffffffffffffffffffffffffffffffffff167fddf252ad1be2c89b69c2b068fc378daa952ba7f163c4a11628f55a4df523b3ef83604051610447919061046b565b60405180910390a35050565b5f819050919050565b61046581610453565b82525050565b5f60208201905061047e5f83018461045c565b92915050565b5f80fd5b5f73ffffffffffffffffffffffffffffffffffffffff82169050919050565b5f6104b182610488565b9050919050565b6104c1816104a7565b81146104cb575f80fd5b50565b5f813590506104dc816104b8565b92915050565b5f602082840312156104f7576104f6610484565b5b5f610504848285016104ce565b91505092915050565b5f61051782610488565b9050919050565b6105278161050d565b8114610531575f80fd5b50565b5f813590506105428161051e565b92915050565b61055181610453565b811461055b575f80fd5b50565b5f8135905061056c81610548565b92915050565b5f806040838503121561058857610587610484565b5b5f61059585828601610534565b92505060206105a68582860161055e565b9150509250929050565b5f82825260208201905092915050565b7f416d6f756e74206d7573742062652067726561746572207468616e20300000005f82015250565b5f6105f4601d836105b0565b91506105ff826105c0565b602082019050919050565b5f6020820190508181035f830152610621816105e8565b9050919050565b7f4e487b71000000000000000000000000000000000000000000000000000000005f52601160045260245ffd5b5f61065f82610453565b915061066a83610453565b925082820190508082111561068257610681610628565b5b92915050565b7f496e73756666696369656e742062616c616e63650000000000000000000000005f82015250565b5f6106bc6014836105b0565b91506106c782610688565b602082019050919050565b5f6020820190508181035f8301526106e9816106b0565b9050919050565b7f496e76616c6964206164647265737300000000000000000000000000000000005f82015250565b5f610724600f836105b0565b915061072f826106f0565b602082019050919050565b5f6020820190508181035f83015261075181610718565b9050919050565b5f61076282610453565b915061076d83610453565b925082820390508181111561078557610784610628565b5b9291505056fea26469706673582212203459bee4c968994c9710d29df0286d2633d1b99dd0024911ab018d1cf660e95c64736f6c63430008150033",
  "immutableReferences": {},
  "source": "// SPDX-License-Identifier: MIT\r\npragma solidity ^0.8.0;\r\n\r\ncontract Bank {\r\n    mapping(address => uint256) public balances;\r\n    \r\n    event Deposit(address indexed sender, uint256 amount);\r\n    event Transfer(address indexed from, address indexed to, uint256 amount);\r\n\r\n    // Deposit ETH to the contract\r\n    function deposit() public payable {\r\n        require(msg.value > 0, \"Amount must be greater than 0\");\r\n        balances[msg.sender] += msg.value;\r\n        emit Deposit(msg.sender, msg.value);\r\n    }\r\n\r\n    // Send ETH to another user\r\n    function sendMoney(address payable _to, uint256 _amount) public {\r\n        require(balances[msg.sender] >= _amount, \"Insufficient balance\");\r\n        require(_to != address(0), \"Invalid address\");\r\n\r\n        balances[msg.sender] -= _amount;\r\n        balances[_to] += _amount;\r\n        _to.transfer(_amount);\r\n\r\n        emit Transfer(msg.sender, _to, _amount);\r\n    }\r\n\r\n    // Check balance\r\n    function getBalance() public view returns (uint256) {\r\n        return balances[msg.sender];\r\n    }\r\n}\r\n",
  "sourcePath": "C:\\Users\\HP\\eth-banking\\contracts\\Bank.sol",
  "compiler": {
    "name": "solc",
    "version": "0.8.21+commit.d9974bed.Emscripten.clang"
  },
  "schemaVersion": "3.4.16",
  "updatedAt": "2025-02-08T13:19:53.656Z",
  "devdoc": {
    "kind": "dev",
    "methods": {},
    "version": 1
  },
  "userdoc": {
    "kind": "user",
    "methods": {},
    "version": 1
  }
}